:020000040800F2
:1000000000500020F1000008390100083901000803
:10001000390100083901000839010008000000001A
:10002000000000000000000000000000390100088E
:1000300039010008000000003901000839010008FA
:1000400039010008390100083901000839010008A8
:100050003901000839010008390100083901000898
:100060003901000839010008390100083901000888
:100070003901000839010008390100083901000878
:100080003901000839010008390100083901000868
:100090003901000839010008390100083901000858
:1000A0003901000839010008390100083901000848
:1000B0003901000839010008390100083901000838
:1000C0003901000839010008390100083901000828
:1000D0003901000839010008390100083901000818
:1000E0003901000839010008390100085FF808F1FA
:1000F000002100F004B80B4B5B58435004310A4810
:100100000A4B42189A42FFF4F6AF094A00F003B8CE
:10011000002342F8043B074B9A42FFF4F9AF00F08A
:10012000DFF87047240C00080000002000000020C9
:10013000000000201C000020FFF7FEBF10B50C4897
:100140000C4600F019FA012000F090F9204600F06A
:1001500073F9084C00F02CF918B114F1FF34F9D2FE
:1001600000E004B1FEE7044800F006FA204610BDA6
:100170001C090008400D03003609000838B50E4878
:1001800000F0FAF90024204600F056F90B4D013D2D
:1001900004D000F00DF90028F9D107E0084800F07C
:1001A000EBF9BDE83840074800F0E6B904F58054A3
:1001B000B4F5802FE7D1F4E745090008410D0300AD
:1001C00098090008610900082DE9F04105468846B4
:1001D000174600F067FB2C46EB199C4205D22046DF
:1001E00000F01AFB04F58064F6E70024A7F58053BD
:1001F0009C4213D20C4E08F580500C30314604223C
:10020000204400F0E7F83168601900F01FFB064653
:1002100010B900F041FB04E00434E7E700F03CFBD8
:1002200001263046BDE8F0810C00002038B50446B8
:1002300000F0B6F9E8B9104B10481D7ADA792D04B0
:1002400045EA02659A7A5B7A154345EA032500F090
:1002500093F921460A482A46FFF7B6FF044618B923
:10026000084800F089F905E0074800F085F9012405
:1002700000E00024204638BD0C000020A909000839
:1002800000100008CF090008F209000810B54FF46B
:10029000802000F085F9C8B10E4B0F481C7ADA793E
:1002A000240444EA02649A7A5B7A144344EA0324FD
:1002B00000F062F900204FF480212246FFF73EFF54
:1002C00020B9064800F058F900F09CFABDE810404B
:1002D000FFF754BF0C000020030A0008290A000899
:1002E00008B500F0D3F800F0F5F800F03FFA00F0A0
:1002F000E1F900F01FF9134800F03EF90020FFF784
:1003000095FF20B1FFF7C2FF0F4800F06BFA0E48CF
:1003100000F040FA28B10D4800F02EF90A4800F02C
:1003200061FA4FF48020FFF781FF28B1084800F000
:1003300023F9054800F056FA064800F01DF900F0D0
:1003400061FAFEE74D0A000800100008600A000884
:10035000860A0008B60A0008064BDA68D8609A6870
:100360009107FCD59A681206FCD4024BD868C0B23B
:10037000704700BF0030014070B50C4C4FF4801343
:1003800023619F20FFF7E8FF0020FFF7E5FF054608
:100390000020FFF7E1FF06460020FFF7DDFF1023F6
:1003A0002361330243EA0543184370BD000801404E
:1003B00010B5074C4FF4801323610520FFF7CCFFE5
:1003C000FF20FFF7C9FF1023236100F0010010BDDB
:1003D000000801402DE9F041054688461646FFF722
:1003E000E7FF044618BB134F4FF480133B610B200B
:1003F000FFF7B2FFC5F30740FFF7AEFFC5F30720D5
:10040000FFF7AAFFE8B2FFF7A7FF2046FFF7A4FF18
:10041000A3B2B34206D20020FFF79EFF08F8040003
:100420000134F5E710233B613046BDE8F081002040
:10043000BDE8F0810008014038B50B4D4FF4801342
:100440002B6104462020FFF787FFC4F30740FFF726
:1004500083FFC4F30720FFF77FFFE0B2FFF77CFFC5
:1004600010232B6138BD00BF0008014010B5064CB9
:100470004FF48013002823610CBF04200620FFF7EF
:100480006BFF1023236110BD000801400D4B0E4986
:100490001A6842F001021A600C4A106801401160AB
:1004A000196821F0847121F480311960196821F4F0
:1004B00080211960136823F4FE031360044B0022AB
:1004C0001A607047001002400000FFF8041002405C
:1004D00008100240154B1A6842F001121A601A689F
:1004E00012489203FBD5124A12211160A2F6FC7247
:1004F000116841F4E81141F480611160016841F034
:1005000080710160196811F0407FFBD0116841F0E3
:100510000201116011680907FCD59A6942F4FE7264
:100520009A61DA6942F40002DA6170470010024011
:10053000002002400F4B9A6942F480429A61A3F571
:1005400084335A6822F040025A605A6842F0B0027E
:100550005A6003F540539A8992B242F400529A814C
:1005600040F271221A819A8992B242F008029A816D
:10057000704700BF0010024010B5044600F09EF91D
:100580000023C0B2DAB2824207D2044A11880906B7
:10059000FBD5E15C01339180F4E710BD00380140E8
:1005A00037B50546FFF7E8FE324A904201D132489E
:1005B00012E0324A904201D131480DE0314A904276
:1005C00001D1314808E0314A904201D1304803E07E
:1005D000304A90420CD13048304CFFF7CDFF2846CE
:1005E00021461022FFF7F6FE2378462B25D104E0A2
:1005F0002B48FFF7C1FF012039E063784C2B1CD159
:10060000A378582B19D1E378492B16D123794D2B98
:1006100013D16379472B10D1A3793A2B0DD12148FF
:10062000FFF7AAFF05F10C0001A90422FFF7D2FE93
:100630009DF804304F2B16D104E01B48FFF79CFFB8
:10064000022014E09DF805304B2B0CD19DF80630AC
:10065000412B08D19DF80730592B04D11348FFF7DF
:100660008BFF002003E01248FFF786FF032003B052
:1006700030BD00BF13202000E90A00081330EF004E
:10068000090B00081640EF00280B00081740EF0088
:10069000460B00081840EF00640B00080C00002017
:1006A000840B0008980B0008AF0B0008C60B00086D
:1006B000E60B00082A4A936943F0010393619369AA
:1006C00043F004039361274B196841F440311960EA
:1006D000196821F44021196010211961196841F449
:1006E00040111960196821F440011960196841F43A
:1006F00000011960196821F040711960196821F032
:1007000040611960196841F0006119604021196168
:10071000196841F040511960196821F04041196091
:10072000196841F000411960936943F48053936163
:100730000D4B00221A605A601A6842F004021A60D7
:100740001A681A601A6842F480721A601A6842F4D1
:1007500000721A601A6842F040021A60704700BFC7
:10076000001002400008014000300140074B084AD9
:100770001A604FF480221A61D3F8042422F4700224
:1007800042F48012C3F80424704700BF000C0140FB
:1007900000040140036803481840B0F10053584278
:1007A000584170470000FE2F044A08B543681060A6
:1007B000026882F30888984708BD00BF08ED00E092
:1007C000074B4FF0FF32C3F88020C3F88420C3F8F2
:1007D0008021C3F88421042243F8F02C704700BF25
:1007E00000E100E010B5064B802204461A60FFF7D6
:1007F000E7FFFFF74BFE2046BDE81040FFF7D4BFF0
:1008000010200240024A034BDA6000BFFDE700BF40
:100810000400FA0500ED00E00A4B10B51A68022248
:100820001A60094A1168144611F0010FF9D190605D
:1008300042221A60226812F00101FBD119600120E6
:1008400010BD00BF102002400C20024037B58BB213
:1008500000930B0C01930E4B01221C681A600D4A89
:100860001568ED07FBD4019DADB245801568ED0715
:10087000FCD4009DADB205801568ED07FCD424F0D2
:1008800001021A600068431A5842584103B030BD53
:10089000102002400C200240014B80221A60704759
:1008A00010200240034B044A1A6002F188321A6099
:1008B000704700BF042002402301674520F0030178
:1008C00010F00300C0F1000051F8043B00F1040CEB
:1008D0004FEACC0C6FF000021CBF22FA0CF213435B
:1008E0004FF0010C4CEA0C2C4CEA0C4CA3EB0C0224
:1008F00022EA030212EACC1204BF51F8043B04308E
:10090000F4D013F0FF0F1FBF013013F47F4F0130FD
:1009100013F47F0F18BF0130704700BFE5BC80E5BE
:10092000A78BE693A6E999A4205265636F7665725A
:10093000792E2E2E0A00E693A6E999A4E8B685E65C
:1009400097B6210A00E5BC80E5A78BE693A6E99956
:10095000A4204F544120E58886E58CBA2E2E2E0A1D
:10096000004F544120E58886E58CBAE693A6E999C4
:10097000A4E5AE8CE68890EFBC88E5B7B2E4BF9DF5
:10098000E79599205265636F7665727920E58886D0
:10099000E58CBAEFBC890A00E693A6E999A4E8B60B
:1009A00085E697B6EFBC810A00E58F91E78EB0E54A
:1009B0009BBAE4BBB6EFBC8CE58699E585A5E586D8
:1009C00085E983A820466C6173682E2E2E0A00E507
:1009D0008699E585A5E5A4B1E8B4A5EFBC8CE5B0A2
:1009E0009DE8AF95E4B88BE4B880E6ADA52E2E2E39
:1009F0000A00E58699E585A5E5AE8CE68890EFBC12
:100A0000810A00E7ACACE4B880E6ACA1204F5441C9
:100A10002C20E68BB7E8B49DE588B0205265636F63
:100A2000766572792E2E2E0A00E68BB7E8B49D20EB
:100A30005265636F7665727920E5A4B1E8B4A5EFDD
:100A4000BC8CE9878DE590AF2E2E2E0A00426F6F89
:100A5000746C6F6164657220E590AFE58AA80A0046
:100A6000E58F91E78EB0E69C89E69588E794A8E645
:100A700088B7E7A88BE5BA8FEFBC8CE8B7B3E8BDC1
:100A8000AC2E2E2E0A00E4BDBFE794A82052656369
:100A90006F7665727920E59BBAE4BBB6E681A2E584
:100AA000A48DE68890E58A9FEFBC8CE8B7B3E8BDDB
:100AB000AC2E2E2E0A00E697A0E69588E59BBAE4B8
:100AC000BBB6EFBC8CE7B3BBE7BB9FE9878DE59076
:100AD000AF2E2E2E0A00777269746550616765200B
:100AE000E8B685E697B6210A0044657465637465C7
:100AF0006420466C6173683A204D323550343020A2
:100B0000283531324B42290A0044657465637465A7
:100B10006420466C6173683A20323558343020289E
:100B20003531324B42290A0044657465637465644B
:100B300020466C6173683A20573235513332202891
:100B4000344D42290A004465746563746564204627
:100B50006C6173683A205732355136342028384D4D
:100B600042290A00446574656374656420466C61BB
:100B700073683A2057323551313238202831364D9A
:100B800042290A00556E6B6E6F776E2053504920D4
:100B9000466C617368210A00E58F91E78EB0E69696
:100BA000B0E59BBAE4BBB6E5A4B4EFBC810A00E6AD
:100BB0009CAAE58F91E78EB0E696B0E59BBAE4BBC0
:100BC000B6EFBC810A00E59BBAE4BBB6E5AE8CE6A5
:100BD00095B4EFBC8CE58786E5A487E58D87E7BAF9
:100BE000A7EFBC810A00E59BBAE4BBB6E5A4B4E577
:100BF000AD98E59CA8EFBC8CE69CAAE58F91E78EAA
:100C0000B0E5AE8CE68890E6A087E5BF97EFBC81A3
:100C1000E59B9EE98080205265636F76657279E37B
:040C200080820A00C4
:04000005080000F0FF
:00000001FF
