:020000040800F2
:1000000000500020F1000008390100083901000803
:10001000390100083901000839010008000000001A
:10002000000000000000000000000000390100088E
:1000300039010008000000003901000839010008FA
:1000400039010008390100083901000839010008A8
:100050003901000839010008390100083901000898
:100060003901000839010008390100083901000888
:100070003901000839010008390100083901000878
:100080003901000839010008390100083901000868
:100090003901000839010008390100083901000858
:1000A0003901000839010008390100083901000848
:1000B0003901000839010008390100083901000838
:1000C0003901000839010008390100083901000828
:1000D0003901000839010008390100083901000818
:1000E0003901000839010008390100085FF808F1FA
:1000F000002100F004B80B4B5B58435004310A4810
:100100000A4B42189A42FFF4F6AF094A00F003B8CE
:10011000002342F8043B074B9A42FFF4F9AF00F08A
:10012000F3F870477C0C000800000020000000205D
:10013000000000201C000020FFF7FEBF10B50C4897
:100140000C4600F02DFA012000F0A4F9204600F042
:1001500087F9084C00F040F918B114F1FF34F9D2D6
:1001600000E004B1FEE7044800F01AFA204610BD92
:1001700044090008400D03005E09000838B5114825
:1001800000F00EFA0024012000F084F9204600F06F
:1001900067F9002000F07EF90B4D013D04D000F01E
:1001A0001BF90028F9D107E0084800F0F9F9BDE88B
:1001B0003840074800F0F4B904F58054B4F5802FB6
:1001C000E1D1F4E76D090008410D0300C009000802
:1001D000890900082DE9F04105468846174600F0D8
:1001E00075FB2C46EB199C4205D2204600F028FBFB
:1001F00004F58064F6E70024A7F580539C4213D2EF
:100200000C4E08F580500C3031460422204400F09A
:10021000F5F83168601900F02DFB064610B900F0C2
:100220004FFB04E00434E7E700F04AFB01263046C8
:10023000BDE8F0810C00002038B5044600F0C4F998
:1002400030BB164B16481D7ADA792D0445EA026553
:100250009A7A5B7A154345EA032500F0A1F9214615
:1002600010482A46FFF7B6FF044618B90E4800F0BA
:1002700097F910E00D4800F093F94FF4802000F05A
:10028000A3F938B9FFF77AFF094800F089F901E0CE
:10029000002400E00124204638BD00BF0C000020EF
:1002A000D109000800100008F70900081A0A000820
:1002B0002B0A000810B54FF4802000F085F9C8B172
:1002C0000E4B0F481C7ADA79240444EA02649A7AC5
:1002D0005B7A144344EA032400F062F900204FF4EF
:1002E00080212246FFF72AFF20B9064800F058F97E
:1002F00000F09CFABDE81040FFF740BF0C00002062
:100300005A0A0008800A000808B500F0D3F800F087
:10031000F5F800F03FFA00F0E1F900F01FF913489A
:1003200000F03EF90020FFF787FF20B1FFF7C2FF82
:100330000F4800F06BFA0E4800F040FA28B10D4863
:1003400000F02EF90A4800F061FA4FF48020FFF720
:1003500073FF28B1084800F023F9054800F056FA69
:10036000064800F01DF900F061FAFEE7A40A000853
:1003700000100008B70A0008DD0A00080D0B00088D
:10038000064BDA68D8609A689107FCD59A6812061D
:10039000FCD4024BD868C0B2704700BF00300140A7
:1003A00070B50C4C4FF4801323619F20FFF7E8FFDA
:1003B0000020FFF7E5FF05460020FFF7E1FF0646B6
:1003C0000020FFF7DDFF10232361330243EA0543DA
:1003D000184370BD0008014010B5074C4FF480135E
:1003E00023610520FFF7CCFFFF20FFF7C9FF102393
:1003F000236100F0010010BD000801402DE9F0412B
:10040000054688461646FFF7E7FF044618BB134F1C
:100410004FF480133B610B20FFF7B2FFC5F3074099
:10042000FFF7AEFFC5F30720FFF7AAFFE8B2FFF71B
:10043000A7FF2046FFF7A4FFA3B2B34206D20020D5
:10044000FFF79EFF08F804000134F5E710233B6135
:100450003046BDE8F0810020BDE8F0810008014091
:1004600038B50B4D4FF480132B6104462020FFF765
:1004700087FFC4F30740FFF783FFC4F30720FFF7AC
:100480007FFFE0B2FFF77CFF10232B6138BD00BF78
:100490000008014010B5064C4FF48013002823617A
:1004A0000CBF04200620FFF76BFF1023236110BD53
:1004B000000801400D4B0E491A6842F001021A6013
:1004C0000C4A106801401160196821F0847121F410
:1004D00080311960196821F480211960136823F4B0
:1004E000FE031360044B00221A60704700100240A4
:1004F0000000FFF80410024008100240154B1A6873
:1005000042F001121A601A6812489203FBD5124A8F
:1005100012211160A2F6FC72116841F4E81141F455
:1005200080611160016841F080710160196811F00B
:10053000407FFBD0116841F002011160116809078A
:10054000FCD59A6942F4FE729A61DA6942F40002BB
:10055000DA61704700100240002002400F4B9A6998
:1005600042F480429A61A3F584335A6822F0400233
:100570005A605A6842F0B0025A6003F540539A89B3
:1005800092B242F400529A8140F271221A819A8901
:1005900092B242F008029A81704700BF00100240F8
:1005A00010B5044600F09EF90023C0B2DAB28242D0
:1005B00007D2044A11880906FBD5E15C013391801A
:1005C000F4E710BD0038014037B50546FFF7E8FEF7
:1005D000324A904201D1324812E0324A904201D16F
:1005E00031480DE0314A904201D1314808E0314AAA
:1005F000904201D1304803E0304A90420CD130485B
:10060000304CFFF7CDFF284621461022FFF7F6FEBB
:100610002378462B25D104E02B48FFF7C1FF0120AA
:1006200039E063784C2B1CD1A378582B19D1E3788F
:10063000492B16D123794D2B13D16379472B10D138
:10064000A3793A2B0DD12148FFF7AAFF05F10C0041
:1006500001A90422FFF7D2FE9DF804304F2B16D1DA
:1006600004E01B48FFF79CFF022014E09DF80530D2
:100670004B2B0CD19DF80630412B08D19DF807304B
:10068000592B04D11348FFF78BFF002003E01248D9
:10069000FFF786FF032003B030BD00BF132020000A
:1006A000400B00081330EF00600B00081640EF000D
:1006B0007F0B00081740EF009D0B00081840EF006B
:1006C000BB0B00080C000020DB0B0008EF0B000840
:1006D000060C00081D0C00083D0C00082A4A93690E
:1006E00043F001039361936943F004039361274B43
:1006F000196841F440311960196821F440211960EA
:1007000010211961196841F440111960196821F428
:1007100040011960196841F400011960196821F05D
:1007200040711960196821F040611960196841F041
:100730000061196040211961196841F04051196048
:10074000196821F040411960196841F000411960B1
:10075000936943F4805393610D4B00221A605A60F1
:100760001A6842F004021A601A681A601A6842F4A1
:1007700080721A601A6842F400721A601A6842F0B5
:1007800040021A60704700BF00100240000801409C
:1007900000300140074B084A1A604FF480221A616A
:1007A000D3F8042422F4700242F48012C3F8042423
:1007B000704700BF000C014000040140036803487B
:1007C0001840B0F100535842584170470000FE2FC6
:1007D000044A08B543681060026882F308889847A5
:1007E00008BD00BF08ED00E0074B4FF0FF32C3F833
:1007F0008020C3F88420C3F88021C3F88421042218
:1008000043F8F02C704700BF00E100E010B5064B44
:10081000802204461A60FFF7E7FFFFF74BFE2046F1
:10082000BDE81040FFF7D4BF10200240024A034B3E
:10083000DA6000BFFDE700BF0400FA0500ED00E04C
:100840000A4B10B51A6802221A60094A1168144648
:1008500011F0010FF9D1906042221A60226812F063
:100860000101FBD11960012010BD00BF1020024022
:100870000C20024037B58BB200930B0C01930E4B4A
:1008800001221C681A600D4A1568ED07FBD4019D12
:10089000ADB245801568ED07FCD4009DADB2058072
:1008A0001568ED07FCD424F001021A600068431AB1
:1008B0005842584103B030BD102002400C20024085
:1008C000014B80221A60704710200240034B044AFB
:1008D0001A6002F188321A60704700BF042002409B
:1008E0002301674520F0030110F00300C0F1000070
:1008F00051F8043B00F1040C4FEACC0C6FF00002FD
:100900001CBF22FA0CF213434FF0010C4CEA0C2CE2
:100910004CEA0C4CA3EB0C0222EA030212EACC12C2
:1009200004BF51F8043B0430F4D013F0FF0F1FBF95
:10093000013013F47F4F013013F47F0F18BF0130E3
:10094000704700BFE5BC80E5A78BE693A6E999A4B4
:10095000205265636F766572792E2E2E0A00E6931B
:10096000A6E999A4E8B685E697B6210A00E5BC8019
:10097000E5A78BE693A6E999A4204F544120E5888A
:1009800086E58CBA2E2E2E0A004F544120E588862B
:10099000E58CBAE693A6E999A4E5AE8CE68890EFDB
:1009A000BC88E5B7B2E4BF9DE79599205265636FB7
:1009B0007665727920E58886E58CBAEFBC890A00F5
:1009C000E693A6E999A4E8B685E697B6EFBC810A56
:1009D00000E58F91E78EB0E59BBAE4BBB6EFBC8C27
:1009E000E58699E585A5E58685E983A820466C61BD
:1009F00073682E2E2E0A00E58699E585A5E5A4B13B
:100A0000E8B4A5EFBC8CE5B09DE8AF95E4B88BE405
:100A1000B880E6ADA52E2E2E0A00E58699E585A5BF
:100A2000E5AE8CE68890EFBC810A005265636F7674
:100A3000657279E58886E58CBAE69C89E59BBAE41F
:100A4000BBB62C20E693A6E999A4204F544120E59B
:100A50008886E58CBA2E2E2E0A00E7ACACE4B8806E
:100A6000E6ACA1204F54412C20E68BB7E8B49DE5BD
:100A700088B0205265636F766572792E2E2E0A003B
:100A8000E68BB7E8B49D205265636F766572792076
:100A9000E5A4B1E8B4A5EFBC8CE9878DE590AF2E55
:100AA0002E2E0A00426F6F746C6F6164657220E5D0
:100AB00090AFE58AA80A00E58F91E78EB0E69C89A1
:100AC000E69588E794A8E688B7E7A88BE5BA8FEFA4
:100AD000BC8CE8B7B3E8BDAC2E2E2E0A00E4BDBF37
:100AE000E794A8205265636F7665727920E59BBA1A
:100AF000E4BBB6E681A2E5A48DE68890E58A9FEF87
:100B0000BC8CE8B7B3E8BDAC2E2E2E0A00E697A049
:100B1000E69588E59BBAE4BBB6EFBC8CE7B3BBE7D0
:100B2000BB9FE9878DE590AF2E2E2E0A0077726964
:100B300074655061676520E8B685E697B6210A00BE
:100B4000446574656374656420466C6173683A201B
:100B50004D323550343020283531324B42290A008D
:100B6000446574656374656420466C6173683A20FB
:100B7000323558343020283531324B42290A00446E
:100B80006574656374656420466C6173683A2057C8
:100B900032355133322028344D42290A00446574DD
:100BA000656374656420466C6173683A205732351A
:100BB0005136342028384D42290A00446574656353
:100BC00074656420466C6173683A20573235513140
:100BD0003238202831364D42290A00556E6B6E6F2F
:100BE000776E2053504920466C617368210A00E5F6
:100BF0008F91E78EB0E696B0E59BBAE4BBB6E5A46C
:100C0000B4EFBC810A00E69CAAE58F91E78EB0E6BE
:100C100096B0E59BBAE4BBB6EFBC810A00E59BBA8F
:100C2000E4BBB6E5AE8CE695B4EFBC8CE58786E513
:100C3000A487E58D87E7BAA7EFBC810A00E59BBAD8
:100C4000E4BBB6E5A4B4E5AD98E59CA8EFBC8CE6A2
:100C50009CAAE58F91E78EB0E5AE8CE68890E6A081
:100C600087E5BF97EFBC81E59B9EE98080205265B8
:0C0C7000636F76657279E380820A0000F1
:04000005080000F0FF
:00000001FF
